{
  "contractName": "Notar",
  "abi": [
    {
      "inputs": [],
      "payable": false,
      "stateMutability": "nonpayable",
      "type": "constructor"
    },
    {
      "constant": false,
      "inputs": [
        {
          "name": "document",
          "type": "string"
        }
      ],
      "name": "notarize",
      "outputs": [],
      "payable": false,
      "stateMutability": "nonpayable",
      "type": "function"
    },
    {
      "constant": true,
      "inputs": [
        {
          "name": "document",
          "type": "string"
        }
      ],
      "name": "proofFor",
      "outputs": [
        {
          "name": "",
          "type": "bytes32"
        }
      ],
      "payable": false,
      "stateMutability": "pure",
      "type": "function"
    },
    {
      "constant": true,
      "inputs": [],
      "name": "getProof",
      "outputs": [
        {
          "name": "",
          "type": "bytes32"
        }
      ],
      "payable": false,
      "stateMutability": "view",
      "type": "function"
    }
  ],
  "bytecode": "0x608060405234801561001057600080fd5b506102df806100206000396000f300608060405260043610610057576000357c0100000000000000000000000000000000000000000000000000000000900463ffffffff1680635c5d625e1461005c5780637183616c1461008f578063f6c1acdf146100f8575b600080fd5b34801561006857600080fd5b5061007161017d565b60405180826000191660001916815260200191505060405180910390f35b34801561009b57600080fd5b506100f6600480360381019080803590602001908201803590602001908080601f0160208091040260200160405190810160405280939291908181526020018383808284378201915050505050509192919290505050610186565b005b34801561010457600080fd5b5061015f600480360381019080803590602001908201803590602001908080601f016020809104026020016040519081016040528093929190818152602001838380828437820191505050505050919291929050505061019c565b60405180826000191660001916815260200191505060405180910390f35b60008054905090565b61018f8161019c565b6000816000191690555050565b60006002826040516020018082805190602001908083835b6020831015156101d957805182526020820191506020810190506020830392506101b4565b6001836020036101000a0380198251168184511680821785525050505050509050019150506040516020818303038152906040526040518082805190602001908083835b602083101515610242578051825260208201915060208101905060208303925061021d565b6001836020036101000a0380198251168184511680821785525050505050509050019150506020604051808303816000865af1158015610286573d6000803e3d6000fd5b5050506040513d602081101561029b57600080fd5b810190808051906020019092919050505090509190505600a165627a7a723058207123a8180f758ee04c0ad909d4812693842d1e283129a17743b9777f654ca7ba0029",
  "source": "pragma solidity ^0.4.22;\n\n\ncontract Notar {\n\n    constructor() public  {\n    }\n    /**\n     *\n     */\n    bytes32 private proof;\n    // calculate and store the proof for a document\n    // *transactional function*\n    function notarize(string document) public  {\n        proof = proofFor(document);\n    }\n    // helper function to get a document's sha256\n    // *read-only function*\n    function proofFor(string document) public pure returns (bytes32) {\n        return sha256(abi.encodePacked(document));\n    }\n    /**\n     * Return value of proof\n     */\n    function getProof() public view returns (bytes32){\n        return proof;\n    }\n}\n",
  "sourcePath": "/www/blockchain/ethereum/solidity/contracts/Notar.sol",
  "compiler": {
    "name": "solc",
    "version": "0.4.24+commit.e67f0147.Emscripten.clang"
  },
  "schemaVersion": "2.0.1",
  "updatedAt": "2018-10-13T09:46:27.297Z"
}