{
  "contractName": "Notar2",
  "abi": [
    {
      "inputs": [],
      "payable": false,
      "stateMutability": "nonpayable",
      "type": "constructor"
    },
    {
      "constant": false,
      "inputs": [
        {
          "name": "proof",
          "type": "bytes32"
        }
      ],
      "name": "storeProof",
      "outputs": [],
      "payable": false,
      "stateMutability": "nonpayable",
      "type": "function"
    },
    {
      "constant": false,
      "inputs": [
        {
          "name": "document",
          "type": "string"
        }
      ],
      "name": "notarize",
      "outputs": [],
      "payable": false,
      "stateMutability": "nonpayable",
      "type": "function"
    },
    {
      "constant": true,
      "inputs": [
        {
          "name": "document",
          "type": "string"
        }
      ],
      "name": "proofFor",
      "outputs": [
        {
          "name": "",
          "type": "bytes32"
        }
      ],
      "payable": false,
      "stateMutability": "pure",
      "type": "function"
    },
    {
      "constant": true,
      "inputs": [
        {
          "name": "proof",
          "type": "bytes32"
        }
      ],
      "name": "hasProof",
      "outputs": [
        {
          "name": "",
          "type": "bool"
        }
      ],
      "payable": false,
      "stateMutability": "view",
      "type": "function"
    },
    {
      "constant": true,
      "inputs": [
        {
          "name": "document",
          "type": "string"
        }
      ],
      "name": "checkDocument",
      "outputs": [
        {
          "name": "",
          "type": "bool"
        }
      ],
      "payable": false,
      "stateMutability": "view",
      "type": "function"
    }
  ],
  "bytecode": "0x608060405234801561001057600080fd5b5061043e806100206000396000f30060806040526004361061006d576000357c0100000000000000000000000000000000000000000000000000000000900463ffffffff16806353fb9233146100725780637183616c146100f35780638952877b1461015c578063e3d1e6d61461018d578063f6c1acdf146101d6575b600080fd5b34801561007e57600080fd5b506100d9600480360381019080803590602001908201803590602001908080601f016020809104026020016040519081016040528093929190818152602001838380828437820191505050505050919291929050505061025b565b604051808215151515815260200191505060405180910390f35b3480156100ff57600080fd5b5061015a600480360381019080803590602001908201803590602001908080601f016020809104026020016040519081016040528093929190818152602001838380828437820191505050505050919291929050505061027a565b005b34801561016857600080fd5b5061018b6004803603810190808035600019169060200190929190505050610294565b005b34801561019957600080fd5b506101bc60048036038101908080356000191690602001909291905050506102ca565b604051808215151515815260200191505060405180910390f35b3480156101e257600080fd5b5061023d600480360381019080803590602001908201803590602001908080601f01602080910402602001604051908101604052809392919081815260200183838082843782019150505050505091929192905050506102fb565b60405180826000191660001916815260200191505060405180910390f35b600080610267836102fb565b9050610272816102ca565b915050919050565b6000610285826102fb565b905061029081610294565b5050565b6001600080836000191660001916815260200190815260200160002060006101000a81548160ff02191690831515021790555050565b6000806000836000191660001916815260200190815260200160002060009054906101000a900460ff169050919050565b60006002826040516020018082805190602001908083835b6020831015156103385780518252602082019150602081019050602083039250610313565b6001836020036101000a0380198251168184511680821785525050505050509050019150506040516020818303038152906040526040518082805190602001908083835b6020831015156103a1578051825260208201915060208101905060208303925061037c565b6001836020036101000a0380198251168184511680821785525050505050509050019150506020604051808303816000865af11580156103e5573d6000803e3d6000fd5b5050506040513d60208110156103fa57600080fd5b810190808051906020019092919050505090509190505600a165627a7a72305820f86108b6ca5e72bd8cb388d3ae58377d6a06f84f00234b3608c7c4d8be1fd7620029",
  "source": "pragma solidity ^0.4.22;\n\n\ncontract Notar2 {\n    constructor() public  {\n    }\n\n    /**\n     * State variable\n     */\n    mapping (bytes32 => bool ) private proofs;\n\n\n    function storeProof(bytes32 proof) public {\n        proofs[proof] = true;\n    }\n    // calculate and store the proof for a document\n    // *transactional function*\n    function notarize(string document) public  {\n        bytes32 proof = proofFor(document);\n        storeProof(proof);\n    }\n    // helper function to get a document's sha256\n    // *read-only function*\n    function proofFor(string document) public  pure returns (bytes32) {\n        return sha256(abi.encodePacked(document));\n    }\n\n    function hasProof(bytes32 proof) public view returns (bool) {\n        return proofs[proof];\n    }\n\n    function checkDocument(string document) public view returns (bool){\n        bytes32 proof = proofFor(document);\n        return hasProof(proof);\n    }\n}\n",
  "sourcePath": "/www/blockchain/ethereum/solidity/contracts/Notar.2.sol",
  "compiler": {
    "name": "solc",
    "version": "0.4.24+commit.e67f0147.Emscripten.clang"
  },
  "schemaVersion": "2.0.1",
  "updatedAt": "2018-10-11T21:38:43.864Z"
}