{
  "contractName": "Playlist",
  "abi": [
    {
      "constant": true,
      "inputs": [],
      "name": "manager",
      "outputs": [
        {
          "name": "",
          "type": "address"
        }
      ],
      "payable": false,
      "stateMutability": "view",
      "type": "function"
    },
    {
      "constant": true,
      "inputs": [
        {
          "name": "",
          "type": "uint256"
        }
      ],
      "name": "requests",
      "outputs": [
        {
          "name": "description",
          "type": "string"
        },
        {
          "name": "value",
          "type": "uint256"
        },
        {
          "name": "recepient",
          "type": "address"
        },
        {
          "name": "complete",
          "type": "bool"
        }
      ],
      "payable": false,
      "stateMutability": "view",
      "type": "function"
    },
    {
      "constant": true,
      "inputs": [],
      "name": "minimunContribution",
      "outputs": [
        {
          "name": "",
          "type": "uint256"
        }
      ],
      "payable": false,
      "stateMutability": "view",
      "type": "function"
    },
    {
      "constant": true,
      "inputs": [
        {
          "name": "",
          "type": "uint256"
        }
      ],
      "name": "approvers",
      "outputs": [
        {
          "name": "",
          "type": "address"
        }
      ],
      "payable": false,
      "stateMutability": "view",
      "type": "function"
    },
    {
      "inputs": [
        {
          "name": "minimun",
          "type": "uint256"
        }
      ],
      "payable": false,
      "stateMutability": "nonpayable",
      "type": "constructor"
    },
    {
      "constant": false,
      "inputs": [],
      "name": "contribute",
      "outputs": [],
      "payable": true,
      "stateMutability": "payable",
      "type": "function"
    }
  ],
  "bytecode": "0x608060405234801561001057600080fd5b506040516020806104f38339810180604052810190808051906020019092919050505033600160006101000a81548173ffffffffffffffffffffffffffffffffffffffff021916908373ffffffffffffffffffffffffffffffffffffffff16021790555080600281905550506104688061008b6000396000f30060806040526004361061006d576000357c0100000000000000000000000000000000000000000000000000000000900463ffffffff168063481c6a751461007257806381d12c58146100c9578063a7f33715146101b4578063d3650fb8146101df578063d7bb99ba1461024c575b600080fd5b34801561007e57600080fd5b50610087610256565b604051808273ffffffffffffffffffffffffffffffffffffffff1673ffffffffffffffffffffffffffffffffffffffff16815260200191505060405180910390f35b3480156100d557600080fd5b506100f46004803603810190808035906020019092919050505061027c565b60405180806020018581526020018473ffffffffffffffffffffffffffffffffffffffff1673ffffffffffffffffffffffffffffffffffffffff16815260200183151515158152602001828103825286818151815260200191508051906020019080838360005b8381101561017657808201518184015260208101905061015b565b50505050905090810190601f1680156101a35780820380516001836020036101000a031916815260200191505b509550505050505060405180910390f35b3480156101c057600080fd5b506101c9610380565b6040518082815260200191505060405180910390f35b3480156101eb57600080fd5b5061020a60048036038101908080359060200190929190505050610386565b604051808273ffffffffffffffffffffffffffffffffffffffff1673ffffffffffffffffffffffffffffffffffffffff16815260200191505060405180910390f35b6102546103c4565b005b600160009054906101000a900473ffffffffffffffffffffffffffffffffffffffff1681565b60008181548110151561028b57fe5b9060005260206000209060030201600091509050806000018054600181600116156101000203166002900480601f0160208091040260200160405190810160405280929190818152602001828054600181600116156101000203166002900480156103375780601f1061030c57610100808354040283529160200191610337565b820191906000526020600020905b81548152906001019060200180831161031a57829003601f168201915b5050505050908060010154908060020160009054906101000a900473ffffffffffffffffffffffffffffffffffffffff16908060020160149054906101000a900460ff16905084565b60025481565b60038181548110151561039557fe5b906000526020600020016000915054906101000a900473ffffffffffffffffffffffffffffffffffffffff1681565b600254341115156103d457600080fd5b60033390806001815401808255809150509060018203906000526020600020016000909192909190916101000a81548173ffffffffffffffffffffffffffffffffffffffff021916908373ffffffffffffffffffffffffffffffffffffffff160217905550505600a165627a7a72305820ace23fc86b76d691fc1207048df82e1c150668acf6b8b92ff202ec0b39520f4b0029",
  "source": "pragma solidity ^0.4.22;\n\ncontract Playlist {\n    struct Request {\n        string description;\n        uint value; //Amount of money to be sent\n        address recepient;\n        bool complete;//Flag to mark request as complete\n    }\n\n    Request[] public requests;//List of requests\n    address public manager; //address of person who is managing playlist\n    uint public minimunContribution; //minimun donation required to  be considered a contributor or approver\n    address[] public approvers; //List of addresses of every person who has donated money\n\n    /**\n     * Modifier execute constructor into function body \n     * It allows control the behavior of smart contract functions.\n     */\n    modifier restricted() {\n        require(msg.sender == manager);\n        _;                              //Mark where to execute constructor\n    }\n\n    constructor(uint minimun) public {\n        manager = msg.sender; //Set manager of contract \n        minimunContribution = minimun;\n    }\n    //Payable - able to receive some amount of money\n    function contribute() public payable {\n        //Require function revert if condition is not met\n        require(msg.value > minimunContribution);\n\n        approvers.push(msg.sender); //Who send message, add to approvers if condition is met\n    }\n\n    //function createRequest(string desc, uint value) public restricted () {\n\n    //}\n}\n\n",
  "sourcePath": "/www/blockchain/ethereum/solidity/contracts/Playlist.sol",
  "compiler": {
    "name": "solc",
    "version": "0.4.24+commit.e67f0147.Emscripten.clang"
  },
  "schemaVersion": "2.0.1",
  "updatedAt": "2018-10-13T09:45:50.918Z"
}